{
  "contractName": "NFTx",
  "abi": [
    {
      "inputs": [],
      "stateMutability": "nonpayable",
      "type": "constructor"
    },
    {
      "anonymous": false,
      "inputs": [
        {
          "indexed": true,
          "internalType": "address",
          "name": "owner",
          "type": "address"
        },
        {
          "indexed": true,
          "internalType": "address",
          "name": "approved",
          "type": "address"
        },
        {
          "indexed": true,
          "internalType": "uint256",
          "name": "tokenId",
          "type": "uint256"
        }
      ],
      "name": "Approval",
      "type": "event"
    },
    {
      "anonymous": false,
      "inputs": [
        {
          "indexed": true,
          "internalType": "address",
          "name": "owner",
          "type": "address"
        },
        {
          "indexed": true,
          "internalType": "address",
          "name": "operator",
          "type": "address"
        },
        {
          "indexed": false,
          "internalType": "bool",
          "name": "approved",
          "type": "bool"
        }
      ],
      "name": "ApprovalForAll",
      "type": "event"
    },
    {
      "anonymous": false,
      "inputs": [
        {
          "indexed": true,
          "internalType": "address",
          "name": "from",
          "type": "address"
        },
        {
          "indexed": true,
          "internalType": "address",
          "name": "to",
          "type": "address"
        },
        {
          "indexed": true,
          "internalType": "uint256",
          "name": "tokenId",
          "type": "uint256"
        }
      ],
      "name": "Transfer",
      "type": "event"
    },
    {
      "inputs": [
        {
          "internalType": "address",
          "name": "to",
          "type": "address"
        },
        {
          "internalType": "uint256",
          "name": "tokenId",
          "type": "uint256"
        }
      ],
      "name": "approve",
      "outputs": [],
      "stateMutability": "nonpayable",
      "type": "function"
    },
    {
      "inputs": [
        {
          "internalType": "address",
          "name": "owner",
          "type": "address"
        }
      ],
      "name": "balanceOf",
      "outputs": [
        {
          "internalType": "uint256",
          "name": "",
          "type": "uint256"
        }
      ],
      "stateMutability": "view",
      "type": "function",
      "constant": true
    },
    {
      "inputs": [],
      "name": "baseURI",
      "outputs": [
        {
          "internalType": "string",
          "name": "",
          "type": "string"
        }
      ],
      "stateMutability": "view",
      "type": "function",
      "constant": true
    },
    {
      "inputs": [
        {
          "internalType": "uint256",
          "name": "tokenId",
          "type": "uint256"
        }
      ],
      "name": "burn",
      "outputs": [],
      "stateMutability": "nonpayable",
      "type": "function"
    },
    {
      "inputs": [
        {
          "internalType": "uint256",
          "name": "tokenId",
          "type": "uint256"
        }
      ],
      "name": "getApproved",
      "outputs": [
        {
          "internalType": "address",
          "name": "",
          "type": "address"
        }
      ],
      "stateMutability": "view",
      "type": "function",
      "constant": true
    },
    {
      "inputs": [
        {
          "internalType": "address",
          "name": "owner",
          "type": "address"
        },
        {
          "internalType": "address",
          "name": "operator",
          "type": "address"
        }
      ],
      "name": "isApprovedForAll",
      "outputs": [
        {
          "internalType": "bool",
          "name": "",
          "type": "bool"
        }
      ],
      "stateMutability": "view",
      "type": "function",
      "constant": true
    },
    {
      "inputs": [],
      "name": "name",
      "outputs": [
        {
          "internalType": "string",
          "name": "",
          "type": "string"
        }
      ],
      "stateMutability": "view",
      "type": "function",
      "constant": true
    },
    {
      "inputs": [
        {
          "internalType": "uint256",
          "name": "tokenId",
          "type": "uint256"
        }
      ],
      "name": "ownerOf",
      "outputs": [
        {
          "internalType": "address",
          "name": "",
          "type": "address"
        }
      ],
      "stateMutability": "view",
      "type": "function",
      "constant": true
    },
    {
      "inputs": [],
      "name": "ownerbalance",
      "outputs": [
        {
          "internalType": "address payable",
          "name": "",
          "type": "address"
        }
      ],
      "stateMutability": "view",
      "type": "function",
      "constant": true
    },
    {
      "inputs": [
        {
          "internalType": "address",
          "name": "from",
          "type": "address"
        },
        {
          "internalType": "address",
          "name": "to",
          "type": "address"
        },
        {
          "internalType": "uint256",
          "name": "tokenId",
          "type": "uint256"
        }
      ],
      "name": "safeTransferFrom",
      "outputs": [],
      "stateMutability": "nonpayable",
      "type": "function"
    },
    {
      "inputs": [
        {
          "internalType": "address",
          "name": "from",
          "type": "address"
        },
        {
          "internalType": "address",
          "name": "to",
          "type": "address"
        },
        {
          "internalType": "uint256",
          "name": "tokenId",
          "type": "uint256"
        },
        {
          "internalType": "bytes",
          "name": "_data",
          "type": "bytes"
        }
      ],
      "name": "safeTransferFrom",
      "outputs": [],
      "stateMutability": "nonpayable",
      "type": "function"
    },
    {
      "inputs": [
        {
          "internalType": "address",
          "name": "operator",
          "type": "address"
        },
        {
          "internalType": "bool",
          "name": "approved",
          "type": "bool"
        }
      ],
      "name": "setApprovalForAll",
      "outputs": [],
      "stateMutability": "nonpayable",
      "type": "function"
    },
    {
      "inputs": [
        {
          "internalType": "bytes4",
          "name": "interfaceId",
          "type": "bytes4"
        }
      ],
      "name": "supportsInterface",
      "outputs": [
        {
          "internalType": "bool",
          "name": "",
          "type": "bool"
        }
      ],
      "stateMutability": "view",
      "type": "function",
      "constant": true
    },
    {
      "inputs": [],
      "name": "symbol",
      "outputs": [
        {
          "internalType": "string",
          "name": "",
          "type": "string"
        }
      ],
      "stateMutability": "view",
      "type": "function",
      "constant": true
    },
    {
      "inputs": [
        {
          "internalType": "uint256",
          "name": "index",
          "type": "uint256"
        }
      ],
      "name": "tokenByIndex",
      "outputs": [
        {
          "internalType": "uint256",
          "name": "",
          "type": "uint256"
        }
      ],
      "stateMutability": "view",
      "type": "function",
      "constant": true
    },
    {
      "inputs": [
        {
          "internalType": "address",
          "name": "owner",
          "type": "address"
        },
        {
          "internalType": "uint256",
          "name": "index",
          "type": "uint256"
        }
      ],
      "name": "tokenOfOwnerByIndex",
      "outputs": [
        {
          "internalType": "uint256",
          "name": "",
          "type": "uint256"
        }
      ],
      "stateMutability": "view",
      "type": "function",
      "constant": true
    },
    {
      "inputs": [
        {
          "internalType": "uint256",
          "name": "tokenId",
          "type": "uint256"
        }
      ],
      "name": "tokenURI",
      "outputs": [
        {
          "internalType": "string",
          "name": "",
          "type": "string"
        }
      ],
      "stateMutability": "view",
      "type": "function",
      "constant": true
    },
    {
      "inputs": [],
      "name": "totalSupply",
      "outputs": [
        {
          "internalType": "uint256",
          "name": "",
          "type": "uint256"
        }
      ],
      "stateMutability": "view",
      "type": "function",
      "constant": true
    },
    {
      "inputs": [
        {
          "internalType": "address",
          "name": "from",
          "type": "address"
        },
        {
          "internalType": "address",
          "name": "to",
          "type": "address"
        },
        {
          "internalType": "uint256",
          "name": "tokenId",
          "type": "uint256"
        }
      ],
      "name": "transferFrom",
      "outputs": [],
      "stateMutability": "nonpayable",
      "type": "function"
    },
    {
      "inputs": [
        {
          "internalType": "string",
          "name": "tokenURI",
          "type": "string"
        }
      ],
      "name": "createItem",
      "outputs": [],
      "stateMutability": "payable",
      "type": "function",
      "payable": true
    },
    {
      "inputs": [],
      "name": "smbalance",
      "outputs": [
        {
          "internalType": "uint256",
          "name": "",
          "type": "uint256"
        }
      ],
      "stateMutability": "view",
      "type": "function",
      "constant": true
    },
    {
      "inputs": [],
      "name": "withdraw",
      "outputs": [],
      "stateMutability": "nonpayable",
      "type": "function"
    },
    {
      "inputs": [
        {
          "internalType": "string",
          "name": "ipfshash",
          "type": "string"
        }
      ],
      "name": "IsHashed",
      "outputs": [
        {
          "internalType": "bool",
          "name": "hashed",
          "type": "bool"
        }
      ],
      "stateMutability": "view",
      "type": "function",
      "constant": true
    },
    {
      "inputs": [
        {
          "internalType": "address",
          "name": "owner",
          "type": "address"
        }
      ],
      "name": "documentsOF",
      "outputs": [
        {
          "components": [
            {
              "internalType": "string",
              "name": "hash",
              "type": "string"
            },
            {
              "internalType": "uint256",
              "name": "tokenid",
              "type": "uint256"
            }
          ],
          "internalType": "struct NFTx.documentData[]",
          "name": "documents",
          "type": "tuple[]"
        }
      ],
      "stateMutability": "view",
      "type": "function",
      "constant": true
    },
    {
      "inputs": [],
      "name": "getAllHashes",
      "outputs": [
        {
          "internalType": "string[]",
          "name": "tokens",
          "type": "string[]"
        }
      ],
      "stateMutability": "view",
      "type": "function",
      "constant": true
    },
    {
      "inputs": [
        {
          "internalType": "address",
          "name": "owner",
          "type": "address"
        }
      ],
      "name": "tokensOf",
      "outputs": [
        {
          "internalType": "uint256[]",
          "name": "tokens",
          "type": "uint256[]"
        },
        {
          "internalType": "bool",
          "name": "success",
          "type": "bool"
        }
      ],
      "stateMutability": "view",
      "type": "function",
      "constant": true
    }
  ],
  "bytecode": "0x60806040523480156200001157600080fd5b506040518060400160405280600481526020017f4e465478000000000000000000000000000000000000000000000000000000008152506040518060400160405280600481526020017f4e46547800000000000000000000000000000000000000000000000000000000815250620000966301ffc9a760e01b6200015960201b60201c565b8160069080519060200190620000ae92919062000231565b508060079080519060200190620000c792919062000231565b50620000e06380ac58cd60e01b6200015960201b60201c565b620000f8635b5e139f60e01b6200015960201b60201c565b6200011063780e9d6360e01b6200015960201b60201c565b505033600b60006101000a81548173ffffffffffffffffffffffffffffffffffffffff021916908373ffffffffffffffffffffffffffffffffffffffff1602179055506200034c565b63ffffffff60e01b817bffffffffffffffffffffffffffffffffffffffffffffffffffffffff19161415620001c5576040517f08c379a0000000000000000000000000000000000000000000000000000000008152600401620001bc9062000319565b60405180910390fd5b6001600080837bffffffffffffffffffffffffffffffffffffffffffffffffffffffff19167bffffffffffffffffffffffffffffffffffffffffffffffffffffffff1916815260200190815260200160002060006101000a81548160ff02191690831515021790555050565b828054600181600116156101000203166002900490600052602060002090601f016020900481019282601f106200027457805160ff1916838001178555620002a5565b82800160010185558215620002a5579182015b82811115620002a457825182559160200191906001019062000287565b5b509050620002b49190620002b8565b5090565b5b80821115620002d3576000816000905550600101620002b9565b5090565b6000620002e6601c836200033b565b91507f4552433136353a20696e76616c696420696e74657266616365206964000000006000830152602082019050919050565b600060208201905081810360008301526200033481620002d7565b9050919050565b600082825260208201905092915050565b614019806200035c6000396000f3fe6080604052600436106101815760003560e01c80635a3f2672116100d1578063b88d4fde1161008a578063e02ddea411610064578063e02ddea4146105ac578063e985e9c5146105e9578063fa221e6614610626578063fe99f7421461065157610181565b8063b88d4fde1461051b578063c38d39a514610544578063c87b56dd1461056f57610181565b80635a3f2672146103e45780636352211e146104225780636c0360eb1461045f57806370a082311461048a57806395d89b41146104c7578063a22cb465146104f257610181565b806323b872dd1161013e5780633d54eebb116101185780633d54eebb1461033957806342842e0e1461035557806342966c681461037e5780634f6ccce7146103a757610181565b806323b872dd146102bc5780632f745c59146102e55780633ccfd60b1461032257610181565b806301ffc9a71461018657806306fdde03146101c3578063081812fc146101ee578063095ea7b31461022b57806318160ddd146102545780631c4d1d311461027f575b600080fd5b34801561019257600080fd5b506101ad60048036038101906101a89190612d4c565b61067c565b6040516101ba91906139ec565b60405180910390f35b3480156101cf57600080fd5b506101d86106e3565b6040516101e59190613a07565b60405180910390f35b3480156101fa57600080fd5b5061021560048036038101906102109190612e24565b610785565b60405161022291906138f6565b60405180910390f35b34801561023757600080fd5b50610252600480360381019061024d9190612d10565b61080a565b005b34801561026057600080fd5b50610269610922565b6040516102769190613ca9565b60405180910390f35b34801561028b57600080fd5b506102a660048036038101906102a19190612de3565b610933565b6040516102b391906139ec565b60405180910390f35b3480156102c857600080fd5b506102e360048036038101906102de9190612c0a565b6109e5565b005b3480156102f157600080fd5b5061030c60048036038101906103079190612d10565b610a45565b6040516103199190613ca9565b60405180910390f35b34801561032e57600080fd5b50610337610aa0565b005b610353600480360381019061034e9190612d9e565b610b65565b005b34801561036157600080fd5b5061037c60048036038101906103779190612c0a565b610bdd565b005b34801561038a57600080fd5b506103a560048036038101906103a09190612e24565b610bfd565b005b3480156103b357600080fd5b506103ce60048036038101906103c99190612e24565b610c59565b6040516103db9190613ca9565b60405180910390f35b3480156103f057600080fd5b5061040b60048036038101906104069190612ba5565b610c7c565b6040516104199291906139bc565b60405180910390f35b34801561042e57600080fd5b5061044960048036038101906104449190612e24565b610ded565b60405161045691906138f6565b60405180910390f35b34801561046b57600080fd5b50610474610e24565b6040516104819190613a07565b60405180910390f35b34801561049657600080fd5b506104b160048036038101906104ac9190612ba5565b610ec6565b6040516104be9190613ca9565b60405180910390f35b3480156104d357600080fd5b506104dc610f85565b6040516104e99190613a07565b60405180910390f35b3480156104fe57600080fd5b5061051960048036038101906105149190612cd4565b611027565b005b34801561052757600080fd5b50610542600480360381019061053d9190612c59565b6111a8565b005b34801561055057600080fd5b5061055961120a565b6040516105669190613911565b60405180910390f35b34801561057b57600080fd5b5061059660048036038101906105919190612e24565b611230565b6040516105a39190613a07565b60405180910390f35b3480156105b857600080fd5b506105d360048036038101906105ce9190612ba5565b6113b3565b6040516105e0919061399a565b60405180910390f35b3480156105f557600080fd5b50610610600480360381019061060b9190612bce565b611562565b60405161061d91906139ec565b60405180910390f35b34801561063257600080fd5b5061063b6115f6565b6040516106489190613ca9565b60405180910390f35b34801561065d57600080fd5b506106666115fe565b6040516106739190613978565b60405180910390f35b6000806000837bffffffffffffffffffffffffffffffffffffffffffffffffffffffff19167bffffffffffffffffffffffffffffffffffffffffffffffffffffffff1916815260200190815260200160002060009054906101000a900460ff169050919050565b606060068054600181600116156101000203166002900480601f01602080910402602001604051908101604052809291908181526020018280546001816001161561010002031660029004801561077b5780601f106107505761010080835404028352916020019161077b565b820191906000526020600020905b81548152906001019060200180831161075e57829003601f168201915b5050505050905090565b600061079082611703565b6107cf576040517f08c379a00000000000000000000000000000000000000000000000000000000081526004016107c690613b89565b60405180910390fd5b6004600083815260200190815260200160002060009054906101000a900473ffffffffffffffffffffffffffffffffffffffff169050919050565b600061081582610ded565b90508073ffffffffffffffffffffffffffffffffffffffff168373ffffffffffffffffffffffffffffffffffffffff161415610886576040517f08c379a000000000000000000000000000000000000000000000000000000000815260040161087d90613c29565b60405180910390fd5b8073ffffffffffffffffffffffffffffffffffffffff166108a5611720565b73ffffffffffffffffffffffffffffffffffffffff1614806108d457506108d3816108ce611720565b611562565b5b610913576040517f08c379a000000000000000000000000000000000000000000000000000000000815260040161090a90613b09565b60405180910390fd5b61091d8383611728565b505050565b600061092e60026117e1565b905090565b60008061093e610922565b905060008114156109535760009150506109e0565b6000805b828110156109d95761097061096b82610c59565b611230565b60405160200161098091906138bb565b60405160208183030381529060405280519060200120856040516020016109a791906138bb565b6040516020818303038152906040528051906020012014156109cc57600191506109d9565b8080600101915050610957565b5080925050505b919050565b6109f66109f0611720565b826117f6565b610a35576040517f08c379a0000000000000000000000000000000000000000000000000000000008152600401610a2c90613c49565b60405180910390fd5b610a408383836118d4565b505050565b6000610a9882600160008673ffffffffffffffffffffffffffffffffffffffff1673ffffffffffffffffffffffffffffffffffffffff168152602001908152602001600020611aeb90919063ffffffff16565b905092915050565b600b60009054906101000a900473ffffffffffffffffffffffffffffffffffffffff1673ffffffffffffffffffffffffffffffffffffffff163373ffffffffffffffffffffffffffffffffffffffff1614610afa57600080fd5b600b60009054906101000a900473ffffffffffffffffffffffffffffffffffffffff1673ffffffffffffffffffffffffffffffffffffffff166108fc479081150290604051600060405180830381858888f19350505050158015610b62573d6000803e3d6000fd5b50565b610b6f600a611b05565b610b8233610b7d600a611b1b565b611b29565b610bd9610b8f600a611b1b565b83838080601f016020809104026020016040519081016040528093929190818152602001838380828437600081840152601f19601f82011690508083019250505050505050611cb7565b5050565b610bf8838383604051806020016040528060008152506111a8565b505050565b610c0e610c08611720565b826117f6565b610c4d576040517f08c379a0000000000000000000000000000000000000000000000000000000008152600401610c4490613c89565b60405180910390fd5b610c5681611d2b565b50565b600080610c70836002611e6590919063ffffffff16565b50905080915050919050565b606060008073ffffffffffffffffffffffffffffffffffffffff168373ffffffffffffffffffffffffffffffffffffffff161415610cef576040517f08c379a0000000000000000000000000000000000000000000000000000000008152600401610ce690613be9565b60405180910390fd5b6000610cfa84610ec6565b90506000811415610d58578067ffffffffffffffff81118015610d1c57600080fd5b50604051908082528060200260200182016040528015610d4b5781602001602082028036833780820191505090505b5060009250925050610de8565b60608167ffffffffffffffff81118015610d7157600080fd5b50604051908082528060200260200182016040528015610da05781602001602082028036833780820191505090505b50905060005b82811015610ddd57610db88682610a45565b828281518110610dc457fe5b6020026020010181815250508080600101915050610da6565b508060019350935050505b915091565b6000610e1d82604051806060016040528060298152602001613fbb602991396002611e919092919063ffffffff16565b9050919050565b606060098054600181600116156101000203166002900480601f016020809104026020016040519081016040528092919081815260200182805460018160011615610100020316600290048015610ebc5780601f10610e9157610100808354040283529160200191610ebc565b820191906000526020600020905b815481529060010190602001808311610e9f57829003601f168201915b5050505050905090565b60008073ffffffffffffffffffffffffffffffffffffffff168273ffffffffffffffffffffffffffffffffffffffff161415610f37576040517f08c379a0000000000000000000000000000000000000000000000000000000008152600401610f2e90613b29565b60405180910390fd5b610f7e600160008473ffffffffffffffffffffffffffffffffffffffff1673ffffffffffffffffffffffffffffffffffffffff168152602001908152602001600020611eb0565b9050919050565b606060078054600181600116156101000203166002900480601f01602080910402602001604051908101604052809291908181526020018280546001816001161561010002031660029004801561101d5780601f10610ff25761010080835404028352916020019161101d565b820191906000526020600020905b81548152906001019060200180831161100057829003601f168201915b5050505050905090565b61102f611720565b73ffffffffffffffffffffffffffffffffffffffff168273ffffffffffffffffffffffffffffffffffffffff16141561109d576040517f08c379a000000000000000000000000000000000000000000000000000000000815260040161109490613aa9565b60405180910390fd5b80600560006110aa611720565b73ffffffffffffffffffffffffffffffffffffffff1673ffffffffffffffffffffffffffffffffffffffff16815260200190815260200160002060008473ffffffffffffffffffffffffffffffffffffffff1673ffffffffffffffffffffffffffffffffffffffff16815260200190815260200160002060006101000a81548160ff0219169083151502179055508173ffffffffffffffffffffffffffffffffffffffff16611157611720565b73ffffffffffffffffffffffffffffffffffffffff167f17307eab39ab6107e8899845ad3d59bd9653f200f220920489ca2b5937696c318360405161119c91906139ec565b60405180910390a35050565b6111b96111b3611720565b836117f6565b6111f8576040517f08c379a00000000000000000000000000000000000000000000000000000000081526004016111ef90613c49565b60405180910390fd5b61120484848484611ec5565b50505050565b600b60009054906101000a900473ffffffffffffffffffffffffffffffffffffffff1681565b606061123b82611703565b61127a576040517f08c379a000000000000000000000000000000000000000000000000000000000815260040161127190613c09565b60405180910390fd5b6060600860008481526020019081526020016000208054600181600116156101000203166002900480601f0160208091040260200160405190810160405280929190818152602001828054600181600116156101000203166002900480156113235780601f106112f857610100808354040283529160200191611323565b820191906000526020600020905b81548152906001019060200180831161130657829003601f168201915b505050505090506060611334610e24565b905060008151141561134a5781925050506113ae565b60008251111561137f5780826040516020016113679291906138d2565b604051602081830303815290604052925050506113ae565b8061138985611f21565b60405160200161139a9291906138d2565b604051602081830303815290604052925050505b919050565b6060600073ffffffffffffffffffffffffffffffffffffffff168273ffffffffffffffffffffffffffffffffffffffff161415611425576040517f08c379a000000000000000000000000000000000000000000000000000000000815260040161141c90613be9565b60405180910390fd5b600061143083610ec6565b90506000811415611495578067ffffffffffffffff8111801561145257600080fd5b5060405190808252806020026020018201604052801561148c57816020015b61147961294b565b8152602001906001900390816114715790505b5091505061155d565b60608167ffffffffffffffff811180156114ae57600080fd5b506040519080825280602002602001820160405280156114e857816020015b6114d561294b565b8152602001906001900390816114cd5790505b50905060005b82811015611556576115086115038683610a45565b611230565b82828151811061151457fe5b60200260200101516000018190525061152d8582610a45565b82828151811061153957fe5b6020026020010151602001818152505080806001019150506114ee565b5080925050505b919050565b6000600560008473ffffffffffffffffffffffffffffffffffffffff1673ffffffffffffffffffffffffffffffffffffffff16815260200190815260200160002060008373ffffffffffffffffffffffffffffffffffffffff1673ffffffffffffffffffffffffffffffffffffffff16815260200190815260200160002060009054906101000a900460ff16905092915050565b600047905090565b6060600061160a610922565b90506000811415611669578067ffffffffffffffff8111801561162c57600080fd5b5060405190808252806020026020018201604052801561166057816020015b606081526020019060019003908161164b5790505b50915050611700565b60608167ffffffffffffffff8111801561168257600080fd5b506040519080825280602002602001820160405280156116b657816020015b60608152602001906001900390816116a15790505b50905060005b828110156116f9576116d56116d082610c59565b611230565b8282815181106116e157fe5b602002602001018190525080806001019150506116bc565b5080925050505b90565b600061171982600261206890919063ffffffff16565b9050919050565b600033905090565b816004600083815260200190815260200160002060006101000a81548173ffffffffffffffffffffffffffffffffffffffff021916908373ffffffffffffffffffffffffffffffffffffffff160217905550808273ffffffffffffffffffffffffffffffffffffffff1661179b83610ded565b73ffffffffffffffffffffffffffffffffffffffff167f8c5be1e5ebec7d5bd14f71427d1e84f3dd0314c0f7b2291e5b200ac8c7c3b92560405160405180910390a45050565b60006117ef82600001612082565b9050919050565b600061180182611703565b611840576040517f08c379a000000000000000000000000000000000000000000000000000000000815260040161183790613ae9565b60405180910390fd5b600061184b83610ded565b90508073ffffffffffffffffffffffffffffffffffffffff168473ffffffffffffffffffffffffffffffffffffffff1614806118ba57508373ffffffffffffffffffffffffffffffffffffffff166118a284610785565b73ffffffffffffffffffffffffffffffffffffffff16145b806118cb57506118ca8185611562565b5b91505092915050565b8273ffffffffffffffffffffffffffffffffffffffff166118f482610ded565b73ffffffffffffffffffffffffffffffffffffffff161461194a576040517f08c379a000000000000000000000000000000000000000000000000000000000815260040161194190613bc9565b60405180910390fd5b600073ffffffffffffffffffffffffffffffffffffffff168273ffffffffffffffffffffffffffffffffffffffff1614156119ba576040517f08c379a00000000000000000000000000000000000000000000000000000000081526004016119b190613a89565b60405180910390fd5b6119c5838383612093565b6119d0600082611728565b611a2181600160008673ffffffffffffffffffffffffffffffffffffffff1673ffffffffffffffffffffffffffffffffffffffff16815260200190815260200160002061209890919063ffffffff16565b50611a7381600160008573ffffffffffffffffffffffffffffffffffffffff1673ffffffffffffffffffffffffffffffffffffffff1681526020019081526020016000206120b290919063ffffffff16565b50611a8a818360026120cc9092919063ffffffff16565b50808273ffffffffffffffffffffffffffffffffffffffff168473ffffffffffffffffffffffffffffffffffffffff167fddf252ad1be2c89b69c2b068fc378daa952ba7f163c4a11628f55a4df523b3ef60405160405180910390a4505050565b6000611afa8360000183612101565b60001c905092915050565b6001816000016000828254019250508190555050565b600081600001549050919050565b600073ffffffffffffffffffffffffffffffffffffffff168273ffffffffffffffffffffffffffffffffffffffff161415611b99576040517f08c379a0000000000000000000000000000000000000000000000000000000008152600401611b9090613b69565b60405180910390fd5b611ba281611703565b15611be2576040517f08c379a0000000000000000000000000000000000000000000000000000000008152600401611bd990613a69565b60405180910390fd5b611bee60008383612093565b611c3f81600160008573ffffffffffffffffffffffffffffffffffffffff1673ffffffffffffffffffffffffffffffffffffffff1681526020019081526020016000206120b290919063ffffffff16565b50611c56818360026120cc9092919063ffffffff16565b50808273ffffffffffffffffffffffffffffffffffffffff16600073ffffffffffffffffffffffffffffffffffffffff167fddf252ad1be2c89b69c2b068fc378daa952ba7f163c4a11628f55a4df523b3ef60405160405180910390a45050565b611cc082611703565b611cff576040517f08c379a0000000000000000000000000000000000000000000000000000000008152600401611cf690613ba9565b60405180910390fd5b80600860008481526020019081526020016000209080519060200190611d26929190612965565b505050565b6000611d3682610ded565b9050611d4481600084612093565b611d4f600083611728565b60006008600084815260200190815260200160002080546001816001161561010002031660029004905014611d9e57600860008381526020019081526020016000206000611d9d91906129e5565b5b611def82600160008473ffffffffffffffffffffffffffffffffffffffff1673ffffffffffffffffffffffffffffffffffffffff16815260200190815260200160002061209890919063ffffffff16565b50611e0482600261216e90919063ffffffff16565b5081600073ffffffffffffffffffffffffffffffffffffffff168273ffffffffffffffffffffffffffffffffffffffff167fddf252ad1be2c89b69c2b068fc378daa952ba7f163c4a11628f55a4df523b3ef60405160405180910390a45050565b600080600080611e788660000186612188565b915091508160001c8160001c9350935050509250929050565b6000611ea4846000018460001b8461220b565b60001c90509392505050565b6000611ebe8260000161229c565b9050919050565b611ed08484846118d4565b611edc848484846122ad565b611f1b576040517f08c379a0000000000000000000000000000000000000000000000000000000008152600401611f1290613a49565b60405180910390fd5b50505050565b60606000821415611f69576040518060400160405280600181526020017f30000000000000000000000000000000000000000000000000000000000000008152509050612063565b600082905060005b60008214611f93578080600101915050600a8281611f8b57fe5b049150611f71565b60608167ffffffffffffffff81118015611fac57600080fd5b506040519080825280601f01601f191660200182016040528015611fdf5781602001600182028036833780820191505090505b50905060006001830390508593505b6000841461205b57600a848161200057fe5b0660300160f81b8282806001900393508151811061201a57fe5b60200101907effffffffffffffffffffffffffffffffffffffffffffffffffffffffffffff1916908160001a905350600a848161205357fe5b049350611fee565b819450505050505b919050565b600061207a836000018360001b612411565b905092915050565b600081600001805490509050919050565b505050565b60006120aa836000018360001b612434565b905092915050565b60006120c4836000018360001b61251c565b905092915050565b60006120f8846000018460001b8473ffffffffffffffffffffffffffffffffffffffff1660001b61258c565b90509392505050565b60008183600001805490501161214c576040517f08c379a000000000000000000000000000000000000000000000000000000000815260040161214390613a29565b60405180910390fd5b82600001828154811061215b57fe5b9060005260206000200154905092915050565b6000612180836000018360001b612668565b905092915050565b600080828460000180549050116121d4576040517f08c379a00000000000000000000000000000000000000000000000000000000081526004016121cb90613b49565b60405180910390fd5b60008460000184815481106121e557fe5b906000526020600020906002020190508060000154816001015492509250509250929050565b6000808460010160008581526020019081526020016000205490506000811415839061226d576040517f08c379a00000000000000000000000000000000000000000000000000000000081526004016122649190613a07565b60405180910390fd5b5084600001600182038154811061228057fe5b9060005260206000209060020201600101549150509392505050565b600081600001805490509050919050565b60006122ce8473ffffffffffffffffffffffffffffffffffffffff16612781565b6122db5760019050612409565b60606123a263150b7a0260e01b6122f0611720565b888787604051602401612306949392919061392c565b604051602081830303815290604052907bffffffffffffffffffffffffffffffffffffffffffffffffffffffff19166020820180517bffffffffffffffffffffffffffffffffffffffffffffffffffffffff8381831617835250505050604051806060016040528060328152602001613f89603291398773ffffffffffffffffffffffffffffffffffffffff166127949092919063ffffffff16565b90506000818060200190518101906123ba9190612d75565b905063150b7a0260e01b7bffffffffffffffffffffffffffffffffffffffffffffffffffffffff1916817bffffffffffffffffffffffffffffffffffffffffffffffffffffffff191614925050505b949350505050565b600080836001016000848152602001908152602001600020541415905092915050565b60008083600101600084815260200190815260200160002054905060008114612510576000600182039050600060018660000180549050039050600086600001828154811061247f57fe5b906000526020600020015490508087600001848154811061249c57fe5b90600052602060002001819055506001830187600101600083815260200190815260200160002081905550866000018054806124d457fe5b60019003818190600052602060002001600090559055866001016000878152602001908152602001600020600090556001945050505050612516565b60009150505b92915050565b600061252883836127ac565b612581578260000182908060018154018082558091505060019003906000526020600020016000909190919091505582600001805490508360010160008481526020019081526020016000208190555060019050612586565b600090505b92915050565b600080846001016000858152602001908152602001600020549050600081141561263357846000016040518060400160405280868152602001858152509080600181540180825580915050600190039060005260206000209060020201600090919091909150600082015181600001556020820151816001015550508460000180549050856001016000868152602001908152602001600020819055506001915050612661565b8285600001600183038154811061264657fe5b90600052602060002090600202016001018190555060009150505b9392505050565b6000808360010160008481526020019081526020016000205490506000811461277557600060018203905060006001866000018054905003905060008660000182815481106126b357fe5b90600052602060002090600202019050808760000184815481106126d357fe5b906000526020600020906002020160008201548160000155600182015481600101559050506001830187600101600083600001548152602001908152602001600020819055508660000180548061272657fe5b600190038181906000526020600020906002020160008082016000905560018201600090555050905586600101600087815260200190815260200160002060009055600194505050505061277b565b60009150505b92915050565b600080823b905060008111915050919050565b60606127a384846000856127cf565b90509392505050565b600080836001016000848152602001908152602001600020541415905092915050565b606082471015612814576040517f08c379a000000000000000000000000000000000000000000000000000000000815260040161280b90613ac9565b60405180910390fd5b61281d85612781565b61285c576040517f08c379a000000000000000000000000000000000000000000000000000000000815260040161285390613c69565b60405180910390fd5b600060608673ffffffffffffffffffffffffffffffffffffffff16858760405161288691906138a4565b60006040518083038185875af1925050503d80600081146128c3576040519150601f19603f3d011682016040523d82523d6000602084013e6128c8565b606091505b50915091506128d88282866128e4565b92505050949350505050565b606083156128f457829050612944565b6000835111156129075782518084602001fd5b816040517f08c379a000000000000000000000000000000000000000000000000000000000815260040161293b9190613a07565b60405180910390fd5b9392505050565b604051806040016040528060608152602001600081525090565b828054600181600116156101000203166002900490600052602060002090601f016020900481019282601f106129a657805160ff19168380011785556129d4565b828001600101855582156129d4579182015b828111156129d35782518255916020019190600101906129b8565b5b5090506129e19190612a2d565b5090565b50805460018160011615610100020316600290046000825580601f10612a0b5750612a2a565b601f016020900490600052602060002090810190612a299190612a2d565b5b50565b5b80821115612a46576000816000905550600101612a2e565b5090565b600081359050612a5981613f2c565b92915050565b600081359050612a6e81613f43565b92915050565b600081359050612a8381613f5a565b92915050565b600081519050612a9881613f5a565b92915050565b600082601f830112612aaf57600080fd5b8135612ac2612abd82613cf1565b613cc4565b91508082526020830160208301858383011115612ade57600080fd5b612ae9838284613ed9565b50505092915050565b60008083601f840112612b0457600080fd5b8235905067ffffffffffffffff811115612b1d57600080fd5b602083019150836001820283011115612b3557600080fd5b9250929050565b600082601f830112612b4d57600080fd5b8135612b60612b5b82613d1d565b613cc4565b91508082526020830160208301858383011115612b7c57600080fd5b612b87838284613ed9565b50505092915050565b600081359050612b9f81613f71565b92915050565b600060208284031215612bb757600080fd5b6000612bc584828501612a4a565b91505092915050565b60008060408385031215612be157600080fd5b6000612bef85828601612a4a565b9250506020612c0085828601612a4a565b9150509250929050565b600080600060608486031215612c1f57600080fd5b6000612c2d86828701612a4a565b9350506020612c3e86828701612a4a565b9250506040612c4f86828701612b90565b9150509250925092565b60008060008060808587031215612c6f57600080fd5b6000612c7d87828801612a4a565b9450506020612c8e87828801612a4a565b9350506040612c9f87828801612b90565b925050606085013567ffffffffffffffff811115612cbc57600080fd5b612cc887828801612a9e565b91505092959194509250565b60008060408385031215612ce757600080fd5b6000612cf585828601612a4a565b9250506020612d0685828601612a5f565b9150509250929050565b60008060408385031215612d2357600080fd5b6000612d3185828601612a4a565b9250506020612d4285828601612b90565b9150509250929050565b600060208284031215612d5e57600080fd5b6000612d6c84828501612a74565b91505092915050565b600060208284031215612d8757600080fd5b6000612d9584828501612a89565b91505092915050565b60008060208385031215612db157600080fd5b600083013567ffffffffffffffff811115612dcb57600080fd5b612dd785828601612af2565b92509250509250929050565b600060208284031215612df557600080fd5b600082013567ffffffffffffffff811115612e0f57600080fd5b612e1b84828501612b3c565b91505092915050565b600060208284031215612e3657600080fd5b6000612e4484828501612b90565b91505092915050565b6000612e59838361306c565b905092915050565b6000612e6d8383613849565b905092915050565b6000612e818383613886565b60208301905092915050565b612e9681613e65565b82525050565b612ea581613e53565b82525050565b6000612eb682613d79565b612ec08185613dd7565b935083602082028501612ed285613d49565b8060005b85811015612f0e5784840389528151612eef8582612e4d565b9450612efa83613db0565b925060208a01995050600181019050612ed6565b50829750879550505050505092915050565b6000612f2b82613d84565b612f358185613de8565b935083602082028501612f4785613d59565b8060005b85811015612f835784840389528151612f648582612e61565b9450612f6f83613dbd565b925060208a01995050600181019050612f4b565b50829750879550505050505092915050565b6000612fa082613d8f565b612faa8185613df9565b9350612fb583613d69565b8060005b83811015612fe6578151612fcd8882612e75565b9750612fd883613dca565b925050600181019050612fb9565b5085935050505092915050565b612ffc81613e77565b82525050565b600061300d82613d9a565b6130178185613e0a565b9350613027818560208601613ee8565b61303081613f1b565b840191505092915050565b600061304682613d9a565b6130508185613e1b565b9350613060818560208601613ee8565b80840191505092915050565b600061307782613da5565b6130818185613e26565b9350613091818560208601613ee8565b61309a81613f1b565b840191505092915050565b60006130b082613da5565b6130ba8185613e37565b93506130ca818560208601613ee8565b6130d381613f1b565b840191505092915050565b60006130e982613da5565b6130f38185613e48565b9350613103818560208601613ee8565b80840191505092915050565b600061311c602283613e37565b91507f456e756d657261626c655365743a20696e646578206f7574206f6620626f756e60008301527f64730000000000000000000000000000000000000000000000000000000000006020830152604082019050919050565b6000613182603283613e37565b91507f4552433732313a207472616e7366657220746f206e6f6e20455243373231526560008301527f63656976657220696d706c656d656e74657200000000000000000000000000006020830152604082019050919050565b60006131e8601c83613e37565b91507f4552433732313a20746f6b656e20616c7265616479206d696e746564000000006000830152602082019050919050565b6000613228602483613e37565b91507f4552433732313a207472616e7366657220746f20746865207a65726f2061646460008301527f72657373000000000000000000000000000000000000000000000000000000006020830152604082019050919050565b600061328e601983613e37565b91507f4552433732313a20617070726f766520746f2063616c6c6572000000000000006000830152602082019050919050565b60006132ce602683613e37565b91507f416464726573733a20696e73756666696369656e742062616c616e636520666f60008301527f722063616c6c00000000000000000000000000000000000000000000000000006020830152604082019050919050565b6000613334602c83613e37565b91507f4552433732313a206f70657261746f7220717565727920666f72206e6f6e657860008301527f697374656e7420746f6b656e00000000000000000000000000000000000000006020830152604082019050919050565b600061339a603883613e37565b91507f4552433732313a20617070726f76652063616c6c6572206973206e6f74206f7760008301527f6e6572206e6f7220617070726f76656420666f7220616c6c00000000000000006020830152604082019050919050565b6000613400602a83613e37565b91507f4552433732313a2062616c616e636520717565727920666f7220746865207a6560008301527f726f2061646472657373000000000000000000000000000000000000000000006020830152604082019050919050565b6000613466602283613e37565b91507f456e756d657261626c654d61703a20696e646578206f7574206f6620626f756e60008301527f64730000000000000000000000000000000000000000000000000000000000006020830152604082019050919050565b60006134cc602083613e37565b91507f4552433732313a206d696e7420746f20746865207a65726f20616464726573736000830152602082019050919050565b600061350c602c83613e37565b91507f4552433732313a20617070726f76656420717565727920666f72206e6f6e657860008301527f697374656e7420746f6b656e00000000000000000000000000000000000000006020830152604082019050919050565b6000613572602c83613e37565b91507f4552433732314d657461646174613a2055524920736574206f66206e6f6e657860008301527f697374656e7420746f6b656e00000000000000000000000000000000000000006020830152604082019050919050565b60006135d8602983613e37565b91507f4552433732313a207472616e73666572206f6620746f6b656e2074686174206960008301527f73206e6f74206f776e00000000000000000000000000000000000000000000006020830152604082019050919050565b600061363e601283613e37565b91507f4164647265737320696e636f72726563746f00000000000000000000000000006000830152602082019050919050565b600061367e602f83613e37565b91507f4552433732314d657461646174613a2055524920717565727920666f72206e6f60008301527f6e6578697374656e7420746f6b656e00000000000000000000000000000000006020830152604082019050919050565b60006136e4602183613e37565b91507f4552433732313a20617070726f76616c20746f2063757272656e74206f776e6560008301527f72000000000000000000000000000000000000000000000000000000000000006020830152604082019050919050565b600061374a603183613e37565b91507f4552433732313a207472616e736665722063616c6c6572206973206e6f74206f60008301527f776e6572206e6f7220617070726f7665640000000000000000000000000000006020830152604082019050919050565b60006137b0601d83613e37565b91507f416464726573733a2063616c6c20746f206e6f6e2d636f6e74726163740000006000830152602082019050919050565b60006137f0603083613e37565b91507f4552433732314275726e61626c653a2063616c6c6572206973206e6f74206f7760008301527f6e6572206e6f7220617070726f766564000000000000000000000000000000006020830152604082019050919050565b60006040830160008301518482036000860152613866828261306c565b915050602083015161387b6020860182613886565b508091505092915050565b61388f81613ecf565b82525050565b61389e81613ecf565b82525050565b60006138b0828461303b565b915081905092915050565b60006138c782846130de565b915081905092915050565b60006138de82856130de565b91506138ea82846130de565b91508190509392505050565b600060208201905061390b6000830184612e9c565b92915050565b60006020820190506139266000830184612e8d565b92915050565b60006080820190506139416000830187612e8d565b61394e6020830186612e9c565b61395b6040830185613895565b818103606083015261396d8184613002565b905095945050505050565b600060208201905081810360008301526139928184612eab565b905092915050565b600060208201905081810360008301526139b48184612f20565b905092915050565b600060408201905081810360008301526139d68185612f95565b90506139e56020830184612ff3565b9392505050565b6000602082019050613a016000830184612ff3565b92915050565b60006020820190508181036000830152613a2181846130a5565b905092915050565b60006020820190508181036000830152613a428161310f565b9050919050565b60006020820190508181036000830152613a6281613175565b9050919050565b60006020820190508181036000830152613a82816131db565b9050919050565b60006020820190508181036000830152613aa28161321b565b9050919050565b60006020820190508181036000830152613ac281613281565b9050919050565b60006020820190508181036000830152613ae2816132c1565b9050919050565b60006020820190508181036000830152613b0281613327565b9050919050565b60006020820190508181036000830152613b228161338d565b9050919050565b60006020820190508181036000830152613b42816133f3565b9050919050565b60006020820190508181036000830152613b6281613459565b9050919050565b60006020820190508181036000830152613b82816134bf565b9050919050565b60006020820190508181036000830152613ba2816134ff565b9050919050565b60006020820190508181036000830152613bc281613565565b9050919050565b60006020820190508181036000830152613be2816135cb565b9050919050565b60006020820190508181036000830152613c0281613631565b9050919050565b60006020820190508181036000830152613c2281613671565b9050919050565b60006020820190508181036000830152613c42816136d7565b9050919050565b60006020820190508181036000830152613c628161373d565b9050919050565b60006020820190508181036000830152613c82816137a3565b9050919050565b60006020820190508181036000830152613ca2816137e3565b9050919050565b6000602082019050613cbe6000830184613895565b92915050565b6000604051905081810181811067ffffffffffffffff82111715613ce757600080fd5b8060405250919050565b600067ffffffffffffffff821115613d0857600080fd5b601f19601f8301169050602081019050919050565b600067ffffffffffffffff821115613d3457600080fd5b601f19601f8301169050602081019050919050565b6000819050602082019050919050565b6000819050602082019050919050565b6000819050602082019050919050565b600081519050919050565b600081519050919050565b600081519050919050565b600081519050919050565b600081519050919050565b6000602082019050919050565b6000602082019050919050565b6000602082019050919050565b600082825260208201905092915050565b600082825260208201905092915050565b600082825260208201905092915050565b600082825260208201905092915050565b600081905092915050565b600082825260208201905092915050565b600082825260208201905092915050565b600081905092915050565b6000613e5e82613eaf565b9050919050565b6000613e7082613eaf565b9050919050565b60008115159050919050565b60007fffffffff0000000000000000000000000000000000000000000000000000000082169050919050565b600073ffffffffffffffffffffffffffffffffffffffff82169050919050565b6000819050919050565b82818337600083830152505050565b60005b83811015613f06578082015181840152602081019050613eeb565b83811115613f15576000848401525b50505050565b6000601f19601f8301169050919050565b613f3581613e53565b8114613f4057600080fd5b50565b613f4c81613e77565b8114613f5757600080fd5b50565b613f6381613e83565b8114613f6e57600080fd5b50565b613f7a81613ecf565b8114613f8557600080fd5b5056fe4552433732313a207472616e7366657220746f206e6f6e20455243373231526563656976657220696d706c656d656e7465724552433732313a206f776e657220717565727920666f72206e6f6e6578697374656e7420746f6b656ea2646970667358221220eae7a0406f375b9c1a9707998b64bfcc2a30f848f3e2c673a8feb97baa627f4464736f6c634300060c0033",
  "immutableReferences": {},
  "source": "// contracts/GameItem.sol\r\n// SPDX-License-Identifier: MIT\r\npragma solidity <0.9.0;\r\npragma experimental ABIEncoderV2;\r\n\r\nimport \"@openzeppelin/contracts/token/ERC721/ERC721.sol\";\r\nimport \"@openzeppelin/contracts/token/ERC721/ERC721Burnable.sol\";\r\n\r\nimport \"@openzeppelin/contracts/utils/Counters.sol\";\r\n\r\ncontract NFTx is ERC721,ERC721Burnable {\r\n    using Counters for Counters.Counter;\r\n    Counters.Counter private _tokenIds;\r\n    address payable public ownerbalance;\r\n\r\n    function createItem(string calldata tokenURI) external payable {\r\n        _tokenIds.increment();\r\n        _mint(msg.sender, _tokenIds.current());\r\n        _setTokenURI(_tokenIds.current(), tokenURI);\r\n    }\r\n\r\n    struct documentData {\r\n        string hash;\r\n        uint256 tokenid;\r\n    }\r\n    modifier onlyOwner() {\r\n        require(msg.sender == ownerbalance);\r\n        _;\r\n    }\r\n\r\n    constructor() public ERC721(\"NFTx\", \"NFTx\") {\r\n        ownerbalance = msg.sender;\r\n    }\r\n\r\n    function smbalance() public view returns (uint256) {\r\n        return address(this).balance;\r\n    }\r\n\r\n    function withdraw() public onlyOwner() {\r\n        ownerbalance.transfer(address(this).balance);\r\n    }\r\n\r\n    function IsHashed(string memory ipfshash)\r\n        public\r\n        view\r\n        returns (bool hashed)\r\n    {\r\n        //obtener cuantos tokens tiene el sm\r\n        uint256 nTokens = totalSupply();\r\n        if (nTokens == 0) {\r\n            return false;\r\n        }\r\n        bool exist = false;\r\n        //buscar si existe ese hash\r\n        for (uint256 i = 0; i < nTokens; i++) {\r\n            if (\r\n                keccak256(abi.encodePacked((ipfshash))) ==\r\n                keccak256(abi.encodePacked(tokenURI(tokenByIndex(i))))\r\n            ) {\r\n                exist = true;\r\n                break;\r\n            }\r\n        }\r\n        return (exist);\r\n    }\r\n\r\n    function documentsOF(address owner)\r\n        public\r\n        view\r\n        returns (documentData[] memory documents)\r\n    {\r\n        //revisar que no sea el address para quemar tokens\r\n        require(owner != address(0), \"Address incorrecto\");\r\n        //numero de tokens\r\n        uint256 nTokens = balanceOf(owner);\r\n        if (nTokens == 0) {\r\n            return (new documentData[](nTokens));\r\n        }\r\n        //arreglo con los documentos\r\n        documentData[] memory dochashes = new documentData[](nTokens);\r\n        for (uint256 i = 0; i < nTokens; i++) {\r\n            dochashes[i].hash = tokenURI(tokenOfOwnerByIndex(owner, i));\r\n            dochashes[i].tokenid = tokenOfOwnerByIndex(owner, i);\r\n        }\r\n        return (dochashes);\r\n    }\r\n\r\n    \r\n\r\n    function getAllHashes() public view returns (string[] memory tokens) {\r\n        //obtener cuantos tokens tiene el sm\r\n        uint256 nTokens = totalSupply();\r\n        if (nTokens == 0) {\r\n            return new string[](nTokens);\r\n        }\r\n        //arreglo con los documentos\r\n        string[] memory dochashes = new string[](nTokens);\r\n        for (uint256 i = 0; i < nTokens; i++) {\r\n            dochashes[i] = tokenURI(tokenByIndex(i));\r\n        }\r\n        return (dochashes);\r\n    }\r\n\r\n    function tokensOf(address owner)\r\n        public\r\n        view\r\n        returns (uint256[] memory tokens, bool success)\r\n    {\r\n        //revisar que no sea el address para quemar tokens\r\n        require(owner != address(0), \"Address incorrecto\");\r\n        //numero de tokens\r\n        uint256 nTokens = balanceOf(owner);\r\n        if (nTokens == 0) {\r\n            return (new uint256[](nTokens), false);\r\n        }\r\n        //require(nTokens != 0, \"no cuentas con tokens\");\r\n        //arreglo de tokens\r\n        uint256[] memory tokensOfowner = new uint256[](nTokens);\r\n        //hacer el arreglo de tokens del owner\r\n        for (uint256 i = 0; i < nTokens; i++) {\r\n            tokensOfowner[i] = tokenOfOwnerByIndex(owner, i);\r\n        }\r\n        return (tokensOfowner, true);\r\n    }\r\n}\r\n",
  "sourcePath": "C:\\Users\\dokxo\\Documents\\CLoudMex\\NFTx\\truffle\\contracts\\Nftx.sol",
  "compiler": {
    "name": "solc",
    "version": "0.6.12+commit.27d51765.Emscripten.clang"
  },
  "schemaVersion": "3.4.2",
  "updatedAt": "2021-07-30T19:15:10.901Z",
  "networkType": "ethereum",
  "devdoc": {
    "kind": "dev",
    "methods": {
      "approve(address,uint256)": {
        "details": "See {IERC721-approve}."
      },
      "balanceOf(address)": {
        "details": "See {IERC721-balanceOf}."
      },
      "baseURI()": {
        "details": "Returns the base URI set via {_setBaseURI}. This will be automatically added as a prefix in {tokenURI} to each token's URI, or to the token ID if no specific URI is set for that token ID."
      },
      "burn(uint256)": {
        "details": "Burns `tokenId`. See {ERC721-_burn}. Requirements: - The caller must own `tokenId` or be an approved operator."
      },
      "getApproved(uint256)": {
        "details": "See {IERC721-getApproved}."
      },
      "isApprovedForAll(address,address)": {
        "details": "See {IERC721-isApprovedForAll}."
      },
      "name()": {
        "details": "See {IERC721Metadata-name}."
      },
      "ownerOf(uint256)": {
        "details": "See {IERC721-ownerOf}."
      },
      "safeTransferFrom(address,address,uint256)": {
        "details": "See {IERC721-safeTransferFrom}."
      },
      "safeTransferFrom(address,address,uint256,bytes)": {
        "details": "See {IERC721-safeTransferFrom}."
      },
      "setApprovalForAll(address,bool)": {
        "details": "See {IERC721-setApprovalForAll}."
      },
      "supportsInterface(bytes4)": {
        "details": "See {IERC165-supportsInterface}. Time complexity O(1), guaranteed to always use less than 30 000 gas."
      },
      "symbol()": {
        "details": "See {IERC721Metadata-symbol}."
      },
      "tokenByIndex(uint256)": {
        "details": "See {IERC721Enumerable-tokenByIndex}."
      },
      "tokenOfOwnerByIndex(address,uint256)": {
        "details": "See {IERC721Enumerable-tokenOfOwnerByIndex}."
      },
      "tokenURI(uint256)": {
        "details": "See {IERC721Metadata-tokenURI}."
      },
      "totalSupply()": {
        "details": "See {IERC721Enumerable-totalSupply}."
      },
      "transferFrom(address,address,uint256)": {
        "details": "See {IERC721-transferFrom}."
      }
    },
    "version": 1
  },
  "userdoc": {
    "kind": "user",
    "methods": {},
    "version": 1
  }
}